:100000000C9470000C9498000C9498000C94980038
:100010000C9498000C9498000C9498000C94980000
:100020000C9498000C9498000C9498000C949800F0
:100030000C9498000C9498000C9498000C949800E0
:100040000C9472020C9498000C94DE020C94B8028A
:100050000C9498000C9498000C9498000C949800C0
:100060000C9498000C9498000C9400000C940000E0
:100070000C9400000C9400000000000850020100E5
:100080000003040700000000000000000000000062
:100090000000250028002B002E0000000000240096
:1000A00027002A002D0004040404040404040202AE
:1000B0000202020203030303030305050505050508
:1000C00005030102040810204080010204081020EA
:1000D00001020408102002080104104020403504E9
:1000E00011241FBECFEFD8E0DEBFCDBF11E0A0E0EE
:1000F000B1E0E4EDF8E002C005900D92AE31B10739
:10010000D9F721E0AEE1B1E001C01D92A63CB207F3
:10011000E1F710E0C0E7D0E004C02197FE010E94A3
:100120006204CF36D107C9F70E9410030C9468040B
:100130000C94000090E0FC01EE53FF4F24918A558F
:100140009F4FFC018491882399F090E0880F991FBC
:10015000FC01E656FF4FA591B491FC01E257FF4F19
:10016000859194918FB7F894EC91E22BEC938FBF2B
:10017000089590E0FC01E858FF4F2491FC01EE53F4
:10018000FF4F34918A559F4FFC018491882361F180
:100190002223C9F021502B30B0F4E22FF0E0ED52D1
:1001A000FF4F0C946204F900FD00DE00F500E3004F
:1001B000E300000106010A01100114019091800082
:1001C0009F7790938000E82FF0E0EE0FFF1FE2573B
:1001D000FF4FA591B4918FB7F894EC91611128C0AD
:1001E00030953E233C938FBF0895909180009F7D72
:1001F000E8CF94B59F7794BDE6CF94B59F7DFBCFB4
:100200009091B0009F779093B000DDCF9091B000B7
:100210009F7DF9CF909190009F7790939000D3CFDE
:10022000909190009F7DF9CF90919000977FF5CFAE
:100230003E2BD8CFAF92BF92CF92DF92EF92FF9238
:100240000F931F93CF93DF936C017B018B01040FFE
:10025000151FEB015E01AE18BF08C017D10759F09A
:100260006991D601ED91FC910190F081E02DC601DC
:100270000995892B79F7C501DF91CF911F910F91D6
:10028000FF90EF90DF90CF90BF90AF900895FC016A
:10029000538D448D252F30E0842F90E0821B930BEB
:1002A000541710F0CF96089501970895FC01918D91
:1002B000828D981761F0A28DAE0FBF2FB11D5D9694
:1002C0008C91928D9F5F9F73928F90E008958FEF36
:1002D0009FEF0895FC01918D828D981731F0828DEA
:1002E000E80FF11D858D90E008958FEF9FEF089541
:1002F000FC01918D228D892F90E0805C9F4F821BA5
:1003000091098F739927089585E291E00E94780101
:1003100021E0892B09F420E0822F089580E090E00D
:10032000892B29F00E94840181110C94000008950A
:10033000FC01A48DA80FB92FB11DA35ABF4F2C915A
:10034000848D90E001968F739927848FA689B78951
:100350002C93A089B1898C91837080648C93938D48
:10036000848D981306C00288F389E02D80818F7DEB
:1003700080830895EF92FF920F931F93CF93DF93A3
:10038000EC0181E0888F9B8D8C8D98131AC0E889D1
:10039000F989808185FF15C09FB7F894EE89FF89A0
:1003A0006083E889F98980818370806480839FBF3E
:1003B00081E090E0DF91CF911F910F91FF90EF903E
:1003C0000895F62E0B8D10E00F5F1F4F0F7311274E
:1003D000E02E8C8D8E110CC00FB607FCFACFE88989
:1003E000F989808185FFF5CFCE010E949801F1CF78
:1003F000EB8DEC0FFD2FF11DE35AFF4FF0829FB7FD
:10040000F8940B8FEA89FB8980818062CFCFCF93EC
:10041000DF93EC01888D8823B9F0AA89BB89E8892C
:10042000F9898C9185FD03C0808186FD0DC00FB6D2
:1004300007FCF7CF8C9185FFF2CF808185FFEDCF50
:10044000CE010E949801E9CFDF91CF910895CF921C
:10045000DF92EF92FF928FB7F894C090C201D090D4
:10046000C301E090C401F090C5018FBF2FB7F8948D
:100470008091C2019091C301A091C401B091C501C6
:100480002FBF8C199D09AE09BF098A3F9105A105AF
:10049000B10598F461E089E00E94B9008AEA99E226
:1004A0000197F1F7000060E089E00E94B9008AEA54
:1004B00099E20197F1F70000D9CF60E089E0FF9061
:1004C000EF90DF90CF900C94B900FC0101900020D8
:1004D000E9F73197AF01481B590BBC0185E291E068
:1004E0000C941A011F920F920FB60F9211242F93A2
:1004F0003F938F939F93AF93BF938091C20190914D
:10050000C301A091C401B091C5013091240120E440
:10051000230F2D3728F023EC230F0196A11DB11DC9
:10052000209324018093C2019093C301A093C4013E
:10053000B093C5018091200190912101A0912201E9
:10054000B09123010196A11DB11D809320019093CC
:100550002101A0932201B0932301BF91AF919F91FC
:100560008F913F912F910F900FBE0F901F90189574
:100570001F920F920FB60F9211242F933F934F9318
:100580005F936F937F938F939F93AF93BF93EF93FB
:10059000FF9385E291E00E949801FF91EF91BF9156
:1005A000AF919F918F917F916F915F914F913F910B
:1005B0002F910F900FBE0F901F9018951F920F92C2
:1005C0000FB60F9211242F938F939F93EF93FF9366
:1005D000E0913501F09136018081E0913B01F0918D
:1005E0003C0182FD1BC0908180913E018F5F8F7323
:1005F00020913F01821741F0E0913E01F0E0EB5D78
:10060000FE4F958F80933E01FF91EF919F918F91C7
:100610002F910F900FBE0F901F9018958081F4CFEF
:100620008091F20080618EBB80E88093F2009EB3DF
:100630009093F2008093610091E09093610090911B
:10064000F2009F799EBB8093F2009EB39093F200DC
:100650009091F2009B7F9EBB8093F2008EB38093BB
:10066000F200789484B5826084BD84B5816084BDD5
:1006700085B5826085BD85B5816085BD80916E0040
:10068000816080936E001092810080918100826071
:1006900080938100809181008160809381008091AE
:1006A00080008160809380008091B100846080939D
:1006B000B1008091B00081608093B0008091910082
:1006C000826080939100809191008160809391007D
:1006D0008091900081608093900080917A00846086
:1006E00080937A0080917A008D7F80937A00809148
:1006F0007A008E7F80937A0080917A008068809360
:100700007A001092C100E0913501F091360182E04B
:100710008083E0913101F09132011082E091330148
:10072000F091340182E2808310923D01E091390121
:10073000F0913A0186E08083E0913701F091380131
:10074000808180618083E0913701F0913801808160
:1007500088608083E0913701F09138018081806862
:100760008083E0913701F091380180818F7D808313
:1007700082E00E949A0061E082E00E94B90083E07A
:100780000E949A0061E083E00E94B90089E00E9423
:100790009A000E94270200E010E0CFEFD0E085E24F
:1007A00091E00E947801892B69F085E291E00E9436
:1007B000560180931E0190931F01682F85E291E0FE
:1007C0000E94BA0180911E0190911F018233910510
:1007D000B9F17CF480339105B9F0C19731F101157D
:1007E0001105E9F20E9484018823C9F20E940000E9
:1007F000D6CF84339105A1F174F1C59781F70E949A
:1008000027028CE191E00AC061E082E00E94B90019
:1008100061E083E00E94B90082E191E00E946502FC
:10082000D0931F01C0931E01DACF61E082E00E94E5
:10083000B90060E083E00E94B90084E191E0EECF6E
:1008400061E083E00E94B90060E082E00E94B900AC
:1008500086E191E0E3CF0E94270288E191E0DECFBC
:100860000E9427028AE191E0D9CFE5E2F1E013820C
:10087000128288EE93E0A0E0B0E084839583A683A3
:10088000B78384E091E09183808385EC90E0958745
:10089000848784EC90E09787868780EC90E0918B4A
:1008A000808B81EC90E0938B828B82EC90E0958B37
:1008B000848B86EC90E0978B868B118E128E138E34
:1008C000148E0895EE0FFF1F0590F491E02D09940A
:0408D000F894FFCFCA
:1008D40000000000BA011A0147010702780156011D
:0E08E4006A013000310032003300340035006C
:00000001FF
