:100000000C9467000C948F000C948F000C948F005C
:100010000C948F000C948F000C948F000C948F0024
:100020000C948F000C948F000C948F000C948F0014
:100030000C948F000C948F000C948F000C948F0004
:100040000C9405020C948F000C9471020C944B02DA
:100050000C948F000C948F000C948F000C948F00E4
:100060000C948F000C948F000000000024002700E7
:100070002A002D0000000000250028002B002E0083
:10008000040404040404040402020202020203033E
:100090000303030305050505050505010204081012
:1000A00020408001020408102001020408102002F0
:1000B0000801041020400000000850020100000365
:1000C000040700000000000000000000D00311241D
:1000D0001FBECFEFD8E0DEBFCDBF11E0A0E0B1E0A2
:1000E000EAE0F8E002C005900D92AA31B107D9F715
:1000F00021E0AAE1B1E001C01D92A23CB207E1F704
:1001000010E0C7E6D0E004C02197FE010E94FD0385
:10011000C636D107C9F70E94A3020C9403040C94BD
:10012000000090E0FC01EA54FF4F2491FC01E556E9
:10013000FF4F349180589F4FFC018491882361F1D7
:100140002223C9F021502B30B0F4E22FF0E0E55526
:10015000FF4F0C94FD03D100D500B600CD00BB00CD
:10016000BB00D800DE00E200E800EC0090918000C7
:100170009F7790938000E82FF0E0EE0FFF1FEC5880
:10018000FF4FA591B4918FB7F894EC91611128C0FD
:1001900030953E233C938FBF0895909180009F7DC2
:1001A000E8CF94B59F7794BDE6CF94B59F7DFBCF04
:1001B0009091B0009F779093B000DDCF9091B00008
:1001C0009F7DF9CF909190009F7790939000D3CF2F
:1001D000909190009F7DF9CF90919000977FF5CFFF
:1001E0003E2BD8CFAF92BF92CF92DF92EF92FF9289
:1001F0000F931F93CF93DF936C017B018B01040F4F
:10020000151FEB015E01AE18BF08C017D10759F0EA
:100210006991D601ED91FC910190F081E02DC6012C
:100220000995892B79F7C501DF91CF911F910F9126
:10023000FF90EF90DF90CF90BF90AF900895FC01BA
:10024000538D448D252F30E0842F90E0821B930B3B
:10025000541710F0CF96089501970895FC01918DE1
:10026000828D981761F0A28DAE0FBF2FB11D5D96E4
:100270008C91928D9F5F9F73928F90E008958FEF86
:100280009FEF0895FC01918D828D981731F0828D3A
:10029000E80FF11D858D90E008958FEF9FEF089591
:1002A000FC01918D228D892F90E0805C9F4F821BF5
:1002B00091098F739927089585E291E00E9450017A
:1002C00021E0892B09F420E0822F089580E090E05E
:1002D000892B29F00E945C0181110C940000089583
:1002E000FC01A48DA80FB92FB11DA35ABF4F2C91AB
:1002F000848D90E001968F739927848FA689B789A2
:100300002C93A089B1898C9180648C93938D848D7A
:10031000981306C00288F389E02D80818F7D808349
:100320000895EF92FF920F931F93CF93DF93EC0109
:1003300081E0888F9B8D8C8D981316C0E889F98990
:10034000808185FF11C0EE89FF896083E889F98982
:1003500080818064808381E090E0DF91CF911F9164
:100360000F91FF90EF900895F62E0B8D10E00F5F28
:100370001F4F0F731127E02E8C8D8E110CC00FB6FE
:1003800007FCFACFE889F989808185FFF5CFCE0196
:100390000E947001F1CFEB8DEC0FFD2FF11DE35AA0
:1003A000FF4FF0820B8FEA89FB8980818062D2CF78
:1003B000CF93DF93EC01888D8823B9F0AA89BB899C
:1003C000E889F9898C9185FD03C0808186FD0DC087
:1003D0000FB607FCF7CF8C9185FFF2CF808185FFA8
:1003E000EDCFCE010E947001E9CFDF91CF9108954A
:1003F000FC0101900020E9F73197AF01481B590B30
:10040000BC0185E291E00C94F2001F920F920FB6AE
:100410000F9211242F933F938F939F93AF93BF938A
:100420008091210190912201A0912301B09124019A
:100430003091200120E4230F2D3728F023EC230FE7
:100440000196A11DB11D209320018093210190935D
:100450002201A0932301B093240180911C0190916B
:100460001D01A0911E01B0911F010196A11DB11D9A
:1004700080931C0190931D01A0931E01B0931F0156
:10048000BF91AF919F918F913F912F910F900FBE90
:100490000F901F9018951F920F920FB60F92112474
:1004A0002F933F934F935F936F937F938F939F937C
:1004B000AF93BF93EF93FF9385E291E00E947001A9
:1004C000FF91EF91BF91AF919F918F917F916F912C
:1004D0005F914F913F912F910F900FBE0F901F9002
:1004E00018951F920F920FB60F9211242F938F938E
:1004F0009F93EF93FF93E0913501F0913601808156
:10050000E0913B01F0913C0182FD1BC09081809104
:100510003E018F5F8F7320913F01821741F0E09180
:100520003E01F0E0EB5DFE4F958F80933E01FF9121
:10053000EF919F918F912F910F900FBE0F901F9071
:1005400018958081F4CF8091F20080618EBB80E8A5
:100550008093F2009EB39093F2008093610091E04B
:10056000909361008093610010926100789484B54B
:10057000826084BD84B5816084BD85B5826085BD9F
:1005800085B5816085BD80916E00816080936E002D
:10059000109281008091810082608093810080911F
:1005A00081008160809381008091800081608093D0
:1005B00080008091B10084608093B1008091B00090
:1005C00081608093B000809191008260809391005F
:1005D0008091910081608093910080919000816072
:1005E0008093900080917A00846080937A0080915B
:1005F0007A00826080937A0080917A008160809393
:100600007A0080917A00806880937A001092C1000D
:10061000E0913501F091360182E08083E091310173
:10062000F09132011082E0913301F091340182E2C5
:10063000808310923D01E0913901F0913A0186E00A
:100640008083E0913701F09138018081806180835F
:10065000E0913701F0913801808188608083E091DA
:100660003701F0913801808180688083E091370103
:10067000F091380180818F7D8083EEE9F0E0249154
:10068000E3E8F0E08491882399F090E0880F991FC7
:10069000FC01E859FF4FA591B491FC01EC58FF4FC4
:1006A000859194918FB7F894EC91E22BEC938FBFE6
:1006B00061E083E00E949100EDE9F0E02491E2E83E
:1006C000F0E08491882399F090E0880F991FFC0155
:1006D000E859FF4FA591B491FC01EC58FF4F85916B
:1006E00094918FB7F894EC91E22BEC938FBF61E07B
:1006F00082E00E94910000E010E0CFEFD0E085E2C0
:1007000091E00E945001892B41F085E291E00E9426
:100710002E0190931B0180931A0180911A019091F0
:100720001B018133910531F164F4C09791F00115FB
:10073000110529F30E945C01882309F30E9400003F
:10074000DECF8233910509F1C39789F788E191E003
:100750000AC061E083E00E94910061E082E00E94B3
:10076000910082E191E00E94F801D0931B01C093B7
:100770001A01DDCF61E083E00E94910060E082E039
:100780000E94910084E191E0EECF61E082E00E945E
:10079000910060E083E00E94910086E191E0E3CF68
:1007A000E5E2F1E01382128288EE93E0A0E0B0E08F
:1007B00084839583A683B78384E091E091838083CB
:1007C00085EC90E09587848784EC90E09787868716
:1007D00080EC90E0918B808B81EC90E0938B828B0E
:1007E00082EC90E0958B848B86EC90E0978B868BE7
:1007F000118E128E138E148E0895EE0FFF1F05902A
:0A080000F491E02D0994F894FFCF65
:10080A00000000009101F2001F01D80150012E01E1
:0A081A0042013000310032003300CB
:00000001FF
